:100000000C94DE0A0C94531C0C94281C0C94FD1BBD
:100010000C94D21B0C94A71B0C947C1B0C94511BAE
:100020000C94261B0C940F0B0C940F0B0C940F0BC1
:100030000C940F0B0C940E300C940F0B0C940F0BB4
:100040000C940F0B0C940F0B0C940F0B0C940F0BC8
:100050000C940F0B0C940F0B0C940F0B0C94DC1ADC
:100060000C940F0B0C943E2F0C94152F0C940F0B2B
:100070000C940F0B0C940F0B0C940F0B0C940F0B98
:100080000C940F0B0C940F0B0C940F0B0C940F0B88
:100090000C940F0B0C940F0B0C940F0B0C947E1CF8
:1000A0000C940F0B0C940F0B0C940F0B0C940F0B68
:1000B0000C940F0B0C940F0B0C940F0B0C940F0B58
:1000C0000C940F0B0C940F0B0C940F0B0C940F0B48
:1000D0000C940F0B0C940F0B0C940F0B0C940F0B38
:1000E0000C940F0B990C801198119811981198117C
:1000F000981153115711F50BFF0B98112D111A116F
:10010000040CB80CBD0CBD0CBD0CBD0CBD0CBD0C65
:10011000BD0CBD0CBD0C981140114E1198114A1127
:10012000020C7011090C150C200C280C340C530C0B
:10013000770C98117F0C250F9811530F680F7E0FC5
:10014000910FC50CCB0C1A0D1F0DB90F07101E1007
:1001500078109210D210EE105E11051198110C114A
:100160009811981198119811981198119811981147
:100170009811981198119811981198119811981137
:100180009811981198119811981198119811981127
:1001900098119811981198119811A70C3710F20B1B
:1001A0000017361714170E17D516D516D516D516EF
:1001B000D516D516D516D516D516F716D516D516C5
:1001C000D516EF16F2168517D516D516D516D516EF
:1001D000D516D516D516D516D516D516D516D516C7
:1001E000D516D516D516D516D516D516D516D516B7
:1001F000D516D516D516D516D516D516D516D516A7
:10020000D516D516D516D516D516D516D516D51696
:10021000D516D516D516D516D516D516D516D51686
:10022000D516D516D516D516D516D516D516D51676
:10023000D516D516D516D516D516D516D516D51666
:10024000D516D516D516D516D516D516D516D51656
:10025000D516D516D516D516D516D516D516D51646
:10026000D516D516D516D516D516D516D516D51636
:10027000D516D516D516D516D516D516D516D51626
:10028000D516D516D516D516D516D516D5167C176E
:10029000C2171C1749174B174F17511753175517EC
:1002A000571759175B175D175F1761174417A81782
:1002B000AA17AC17AE17B017B217B417B617B817FE
:1002C000BA17BC17BE17D516CE17D117C416D51638
:1002D000D516D516031809180F1814181918D5169D
:1002E0003918D5163E18D516D516D51654187218C5
:1002F0008E18D516D516D516D516D7180119D516B8
:100300002119D516D5164D1943194719C416C41607
:10031000C416C416D516D516D516D516D516D516A7
:1003200063176517671769176B176D176F177117C5
:100330007317751777177917BF26D626EB2626274A
:10034000EE262627FA26D9260627DC26FD26F426C1
:10035000D626E526D326BC269B269E26A126A426A5
:10036000A726AA26AD26B026B326B626DF26E22685
:10037000F426B9260C272327F1264D26502653268E
:10038000562659265C265F266226652668266B2639
:100390006E267126742677267A267D268026832669
:1003A000862689268C268F2692269526982626270D
:1003B000262726272627E826262726272627262714
:1003C00026272627262726272627262726272627C5
:1003D00026272627262726272627262726272627B5
:1003E00026272627262726272627262726272627A5
:1003F0001527262726272627F726FA26FD26002753
:100400000327062709270C270F271227272B2A2B1C
:10041000192B1D2B232B612B2E2B322B382B3C2BF6
:10042000402B462B4A2B4E2B612B542B582B5C2BED
:10043000EC39FF3AFF3AFF3AFF3ADE38DF38DF386F
:10044000DF38DF38DF38DF38DF38DF38DF38FF3AD2
:10045000FF3AFF3AFF3AFF3AFF3AFF3AFF3AFF3AD4
:1004600039393E398A399039FF3ADB39F338FF3A66
:10047000FF3ADF39FF3AE239FF3AFF3AF0392E3AD4
:100480001939313A893A8E3A923A1E39D13ADC3AE0
:1004900000407A10F35A00A0724E18090010A5D43B
:1004A000E80000E87648170000E40B54020000CA98
:1004B0009A3B000000E1F5050000809698000000DE
:1004C00040420F000000A08601000000102700003D
:1004D0000000E803000000006400000000000A00C3
:1004E000000000000100000000002C76D888DC67C6
:1004F0004F0823DFC1DFAE59E1B1B796E5E3E4531E
:10050000C63AE651997696E8E6C28426EB898C9B3A
:1005100062ED407C6FFCEFBC9C9F40F2BAA56FA5DA
:10052000F490055A2AF75C936B6CF9676DC11BFC5C
:10053000E0E40D47FEF520E6B500D0ED902E030077
:10054000943577050080841E080000204E0A0000C4
:1005500000C80C333333330F986E12831141EF8D83
:100560002114893BE65516CFFEE6DB18D1844B38C3
:100570001BF77C1D901DA4BBE424203284725E22F4
:100580008100C9F124ECA1E53D270A0D456E746593
:1005900072205C3F20666F722068656C700A000AEA
:1005A0000D4B334E47204B6579657220566572734B
:1005B000696F6E200020687A00207365636F6E6437
:1005C000730053657474696E67206B65796572207A
:1005D000746F2051525353204D6F64652E2044692F
:1005E00074206C656E6774683A20004572726F7291
:1005F0002E2E2E003E006666006E0054582050617C
:100600007573653A204F006666006E0054582049A5
:100610006E68696269743A204F006666006E005029
:100620005454206275666665726564206368617201
:10063000616374657220686F6C64206163746976AD
:10064000653A204F006E006666004D696C6C204D67
:100650006F64653A204F004F666600517569657496
:1006600020506164646C6520496E746572727570A7
:10067000743A200054583A2000576F7264737061C6
:1006800063653A20006666006E004175746F737092
:10069000616365204F002057504D004163746976B7
:1006A00061746564292052616E67653A20004E6F5F
:1006B000742000202800506F74656E74696F6D653A
:1006C0007465722057504D3A200053657269616C11
:1006D000204E756D6265723A2000576569676874CF
:1006E000696E673A200044616820746F2064697401
:1006F0003A2000506164646C65204F6E6C79004F45
:100700006666004F6E0053696465746F6E653A20CB
:1007100000207365636F6E64730051525353204D14
:100720006F646520416374697661746564202D206F
:10073000446974204C656E6774683A20004469739C
:1007400061626C6564004661726E73776F72746883
:100750002057504D3A2000436F6D6D616E64204DFF
:100760006F64652057504D3A200057504D3A200095
:100770006E0066660020446168204F006E00666669
:1007800000427566666572733A20446974204F00B2
:1007900053696E676C6520506164646C6500556CCC
:1007A00074696D617469632000537472616967686C
:1007B00074204B6579004275670049616D62696319
:1007C00020420049616D6269632041000D0A4B655A
:1007D00079696E67207478202D207072657373209C
:1007E00061206B657920746F20756E6B6579000AE6
:1007F0004572726F72002057504D00202D20000D61
:100800000A53657474696E6720706F74656E7469DD
:100810006F6D657465722072616E676520746F20FC
:1008200000360035003400330032000D0A5377697A
:10083000746368696E6720746F20545820230031F8
:10084000000D0A537769746368696E6720746F20BE
:1008500054582023000D0A556E6B6E6F776E20631F
:100860006F6D6D616E64006E006666000D0A505417
:1008700054206275666665726564206368617261A2
:100880006374657220686F6C642061637469766557
:10089000204F000D0A4D696C6C204D6F6465204F30
:1008A0006666000D0A4D696C6C204D6F6465204FC3
:1008B0006E000D0A506164646C6520496E74657247
:1008C00072757074696F6E20517569657420546912
:1008D0006D65207365742E006666006E000D0A4417
:1008E000616820427566666572204F006666006E1C
:1008F000000D0A44697420427566666572204F00D7
:100900000D0A5761697420666F7220435220746F1C
:100910002073656E64204357000D0A53656E642092
:10092000435720696D6D6564696174656C79006E0B
:10093000006666000D0A4175746F7370616365200F
:100940004F006374697661746564004465610041B9
:10095000000D0A506F74656E74696F6D6574657211
:1009600020006E006666000D0A505454206F004F40
:100970004E00504144444C45204F4E4C59004F4688
:1009800046000D0A53696465746F6E6520006E6FD2
:10099000726D616C007265766572736564000D0A34
:1009A000506164646C657320000D0A5152535320EA
:1009B0004F6666000D0A4552524F523A204B6579F8
:1009C000657220696E20436F6D6D616E64204D6F9E
:1009D00064650D0A000D0A5458206F6E000D0A540C
:1009E00058206F6666000D0A427567000D0A556C47
:1009F00074696D61746963000D0A53696E676C6593
:100A000020506164646C65000D0A49616D62696320
:100A10002042000D0A49616D626963204100008A2D
:100A200000868482838D008B898785096000009E03
:100A300000000071310000007A73617732000063BA
:100A40007864653433000020766674723500006E79
:100A500062686779360000006D6A75373800002CCF
:100A60006B696F303900002E2F6C3B702D00000039
:100A700027005B3D000000000D5D005C00000000F1
:100A8000000000007F000031003437000000302EED
:100A9000323536381B008C2B332D2A398E0000005E
:100AA000008800D000CCCAC8C9D300D1CFCDCB09B3
:100AB0007E0000000000005121000000BB53A2B8DE
:100AC0004000004358A5A624230000205646B552F6
:100AD000250000AFA3A9A8595E000000AE4AB626C3
:100AE0002A00003C4BAAB0292800003E3F4C3A5057
:100AF0005F00000022007B2B000000000D7D007CC9
:100B000000000000000000009D00003100343700AC
:100B10000000302E323536381B00D22B332D2A39C7
:100B2000A000000000CE00C400C0BEBCBDC700C510
:100B3000C3C1BF097E000000000000512100000079
:100B4000BB53A2B8400000A458A5A624230000204F
:100B50005646B552250000AFA3A9A8595E00000073
:100B6000AE4AB6262A00003C4BAAB0292800003E17
:100B70003F4C3A505F00000022007B2B0000000039
:100B80000D7D007C00000000000000009D00003191
:100B9000003437000000302E323536381B00992BD8
:100BA000332D2A39A0000000009500970093918F03
:100BB000909A0098969492097E00000000000051DF
:100BC000210000005A534157400000435844452437
:100BD00023000020564654522500004E42484759F3
:100BE0005E0000004D4A55262A00003C4B494F2923
:100BF0002800003E3F4C3A505F00000022007B2B53
:100C0000000000000D7D007C0000000000000000DE
:100C10009D000031003437000000302E3235363868
:100C20001B00992B332D2A39A000000000950000ED
:100C30002100240027002A002D003000330001018C
:100C40000000040107010A01000020002300260023
:100C500029002C002F0032000001000003010601D2
:100C6000090100000A0B02090C0D0E08070304011C
:100C70000000000000000000000000000000000074
:100C80000000000000000000000000000000121141
:100C90001000000000000000000000000000000044
:100CA00000000000000000000102102020080810D1
:100CB00020401020408002010201080402010102CC
:100CC00004081020408080402010080402018004A5
:100CD0000201804020100804020108040201010200
:100CE0000408102040800102040810204080000009
:100CF0002200250028002B002E00310034000201C4
:100D00000000050108010B01050505050705080898
:100D10000808020202020A0A080804040404010185
:100D2000010101010101030303030303030304079A
:100D300007070C0C0C0C0C0C0C0C02020202060631
:100D40000606060606060B0B0B0B0B0B0B0B0245E0
:100D500072726F722E2E2E004572726F722E2E2EB0
:100D6000000A0D4572726F72000A0D57726F74653A
:100D7000206D656D6F727920004D656D6F72792001
:100D800066756C6C2C207472756E636174696E6725
:100D90002E005C2B09093A2050726F7369676E2030
:100DA000746865206E6578742074776F206368615D
:100DB00072616374657273005C5A2309093A2044B6
:100DC00065637265617365207370656564202320B7
:100DD00057504D005C592309093A20496E637265EA
:100DE00061736520737065656420232057504D0042
:100DF0005C582309093A2053776974636820746F3B
:100E0000207472616E736D69747465722023005C66
:100E10005723232309093A204368616E67652057E9
:100E2000504D20746F20232323005C5609093A207B
:100E3000556E6B657920505454005C5509093A2071
:100E40004B657920505454005C5423232309093AFC
:100E5000205472616E736D697420666F7220232353
:100E600023207365636F6E6473005C5309093A2035
:100E7000496E73657274207370616365005C52091A
:100E8000093A2053776974636820746F207265672C
:100E9000756C6172207370656564206D6F646500A8
:100EA0005C51232309093A205377697463682074DD
:100EB0006F20515253532077697468202323207385
:100EC00065636F6E6420646974206C656E67746816
:100ED000005C4E09093A2044656372656D656E7465
:100EE0002073657269616C206E756D626572202D6C
:100EF00020646F206E6F742073656E64005C490916
:100F0000093A20496E73657274206D656D6F727950
:100F10002023005C462323232309093A20536574C8
:100F20002073696465746F6E6520746F20232323BA
:100F30002320687A005C4509093A2053656E6420D5
:100F400073657269616C206E756D6265722C2074B8
:100F500068656E20696E6372656D656E74005C44D1
:100F600023232309093A2044656C617920666F7256
:100F700020232323207365636F6E6473005C430931
:100F8000093A2053656E642073657269616C206E46
:100F9000756D626572207769746820637574206E60
:100FA000756D626572732C207468656E20696E635E
:100FB00072656D656E74005C2309093A204A756D8F
:100FC0007020746F206D656D6F72792023000A4D5B
:100FD000656D6F7279204D6163726F733A005C5C6E
:100FE00009093A20456D707479206B6579626F61EB
:100FF00072642073656E6420627566666572005C5B
:101000004009093A204D696C6C204D6F6465005CA5
:101010007D2323232309093A2053657420506F74DC
:10102000656E74696F6D657465722072616E676557
:10103000005C3D09093A20546F67676C6520416D7B
:1010400065726963616E204D6F727365206D6F64A8
:1010500065202020202872657175697265732046AD
:101060004541545552455F414D45524943414E5FBC
:101070004D4F52534529005C5B09093A2053657472
:1010800020717569657420706164646C6520696E97
:1010900074657272757074696F6E202D20302074C3
:1010A0006F20323020656C656D656E74206C656EE6
:1010B000677468733B2030203D206F6666005C29B2
:1010C00009093A2053656E642073657269616C206A
:1010D0006E756D626572207769746820637574201F
:1010E0006E756D626572732C207468656E20696E12
:1010F0006372656D656E74005C2809093A2053655A
:101100006E642063757272656E74207365726961B6
:101110006C206E756D62657220696E206375742037
:101120006E756D62657273005C3C09093A20536507
:101130006E642063757272656E7420736572696186
:101140006C206E756D626572005C3E09093A205331
:10115000656E642073657269616C206E756D626581
:10116000722C207468656E20696E6372656D656EA1
:1011700074005C7B09093A20514C46206D6F646510
:10118000206F6E2F6F6666005C3A09093A20546F33
:1011900067676C652063772073656E64206563689C
:1011A0006F005C7E09093A20526573657420756E84
:1011B0006974005C2D09093A20546F67676C6520DB
:1011C00064616820627566666572206F6E2F6F6657
:1011D00066005C2E09093A20546F67676C652064CD
:1011E000697420627566666572206F6E2F6F666621
:1011F000005C5E09093A20546F67676C652077616F
:10120000697420666F72206361727269616765201C
:1012100072657475726E20746F2073656E642043FE
:1012200057202F2073656E6420435720696D6D65CC
:1012300064696174656C79005C6009093A20546FD7
:1012400067676C65207374726169676874206B6589
:1012500079206563686F005C2A09093A20546F673A
:10126000676C6520706164646C65206563686F00FD
:101270005C7C2323232309093A20536574206D6580
:101280006D6F72792072657065617420286D696C6C
:101290006C697365636F6E647329005C2123230995
:1012A000093A2052657065617420706C6179206D17
:1012B000656D6F7279005C2B09093A204372656194
:1012C00074652070726F7369676E005C5A09093A21
:1012D000204175746F7370616365206F6E2F6F6648
:1012E00066005C592309093A204368616E676520EE
:1012F000776F7264737061636520746F2023005C84
:10130000582309093A2053776974636820746F2061
:101310007472616E736D69747465722023005C571A
:10132000235B235D5B235D093A204368616E67653B
:101330002057504D20746F20232323005C56090949
:101340003A20506F74656E74696F6D6574657220B4
:1013500061637469766174652F646561637469762D
:10136000617465005C5509093A2050545420746F2B
:1013700067676C65005C5409093A2054756E6520F6
:101380006D6F6465005C5309093A2053746174758C
:1013900073207265706F7274005C5209093A2053B1
:1013A000776974636820746F20726567756C617209
:1013B000207370656564202877706D29206D6F64D7
:1013C00065005C51235B235D09093A2053776974FA
:1013D000636820746F2051525353206D6F646520F1
:1013E00077697468202323207365636F6E642064BB
:1013F0006974206C656E677468005C50783C737427
:1014000072696E673E093A2050726F6772616D2093
:101410006D656D6F72792023782077697468203C40
:10142000737472696E673E005C4F09093A20546F0D
:1014300067676C652073696465746F6E65206F6E95
:101440002F6F6666005C4E09093A20546F67676C1F
:101450006520706164646C65207265766572736581
:10146000005C4D23232309093A205365742046610B
:10147000726E73776F727468207370656564005C58
:101480004C232309093A20536574207765696768FE
:1014900074696E6720283530203D206E6F726D6153
:1014A0006C29005C4A23232309093A2053657420E0
:1014B00064616820746F2064697420726174696F5C
:1014C000005C4909093A205458206C696E65206413
:1014D000697361626C652F656E61626C65005C4763
:1014E00009093A2053776974636820746F20627524
:1014F00067206D6F6465005C462323232309093A46
:10150000205365742073696465746F6E6520746F11
:10151000202323232320687A005C452323232309E7
:10152000093A205365742073657269616C206E7589
:101530006D62657220746F2023232323005C4409AD
:10154000093A20556C74696D61746963005C4309E4
:10155000093A2053696E676C6520706164646C653C
:10156000005C4209093A2049616D626963204200CA
:101570005C4109093A2049616D6269632041005C60
:101580002309093A20506C6179206D656D6F72797D
:101590002023207800434C4920636F6D6D616E6499
:1015A000733A000A0D4B334E47204B657965722024
:1015B00048656C700A0D0000E45DDC5D11241FBEFF
:1015C000CFEFD1E2DEBFCDBF00E00CBF16E0A0E060
:1015D000B2E0E2ECF3ED00E00BBF02C007900D9229
:1015E000A23FB107D9F72BE0A2EFB6E001C01D92F0
:1015F000A43CB207E1F71AE0CDEDDAE000E006C066
:1016000021970109802FFE010E94D164CC3DD107B2
:1016100080E00807A9F70E94F9480C94D0690C945F
:1016200000003F924F925F926F927F928F929F92B3
:10163000AF92BF92CF92DF92EF92FF920F931F93E0
:10164000CF93DF93CDB7DEB760970FB6F894DEBFC8
:101650000FBECDBFDD24D39492E0592ECC24CA9482
:1016600024E6322E3AE0432E4E012DE0820E911CEC
:101670008091C40A9091C50ADC01ED91FC9100842F
:10168000F185E02D1995181619060CF0BDC680914C
:10169000C40A9091C50ADC01ED91FC910284F385A6
:1016A000E02D1995E090C40AF090C50A20917007CA
:1016B000992721117AC00E94A922182F80937107BF
:1016C0008C3509F45FC08B3109F468C08091DB0A66
:1016D000811124C080916F07882329F084E10E9442
:1016E0007B2210926F0780916E07882399F080917A
:1016F0006D07811108C0103268F085E10E947B22DD
:10170000D0926D0707C01D3029F486E10E947B222C
:1017100010926D07812F0E947B222CC0823089F4A9
:10172000D701ED91FC910190F081E02D612FC7016F
:101730001995809171078D30E9F4C7010E94852EBB
:1017400019C0C7010E94852EC7010E94852E809175
:1017500071078D3019F4C7010E94852ED701ED91D4
:10176000FC910190F081E02D60917107C7011995FE
:101770005092DB0A809171078D3009F479CF8A305D
:1017800089F476CFD0927007D701ED91FC9101904A
:10179000F081E02D6CE5C70119956ACF1092B80B66
:1017A000D092B90BC092210263CF0E94A922682F68
:1017B00080937107D701ED91FC910190F081E02DAC
:1017C000C701199510917107412F50E0FA01B197A7
:1017D000EE35F10508F0ACC58827EE58FF4F8F4F66
:1017E0000C94D1640C940000A8C580911502882344
:1017F00019F010921502A1C5D09215029EC5D09283
:101800006F079BC560E001C061E0C7010E949E4771
:1018100094C583E08093CB0A1092D30A1092D40A25
:10182000D092010763E17AE085C55092CB0A10920D
:10183000D30A1092D40AD092010768E07AE07AC500
:1018400086E08093CB0AD092010768EF79E072C5F9
:1018500085E08093CB0AD092D30AD092D40AD0925A
:1018600001076CEE79E066C501E010E0970140E108
:1018700057E260E070E084E00E942C3F18161906E1
:101880000CF05BC590931102809310026AE774E03C
:10189000C7010E94F7156091100270911102C701F3
:1018A0000E94D3354AC501E010E0970142ED57E0B0
:1018B0006AE271E084E00E942C3F8C018C529140DE
:1018C000853A964008F039C566E974E0C7010E9480
:1018D000F715B801C7010E948B3565EB75E0C701AC
:1018E0000E94052F1093E00A0093DF0A19C584E0D7
:1018F0008093CB0AD092010766EE79E01BC59091E8
:10190000FF0680910E07992339F0823061F0109222
:10191000FF066DED79E00EC5823029F0D092FF060A
:1019200065ED79E007C564EB79E0C7010E94E12E1F
:1019300004C501E010E097014DE050E060E070E088
:1019400082E00E942C3F815080932102F6C401E086
:1019500010E0970140E05DE76FEF7FEF85E00E94C8
:101960002C3F97FDEAC49093E60A8093E50AD8C419
:1019700087E10E947B2289E005C087E10E947B22EB
:101980008FEC810F0E947B2244C4C0922102C701C8
:101990000E94A83BD2C46BE574E0CE0107960E947A
:1019A000C02D10E08091C40A9091C50ADC01ED9130
:1019B000FC910084F185E02D1995892B49F48091E3
:1019C0000E078111EFCF0E944E410E943827EACFC7
:1019D0008091C40A9091C50ADC01ED91FC910284CA
:1019E000F385E02D1995082F80ED800F8A30F0F4F3
:1019F000BE01695F7F4FCE0101960E94B82D602F16
:101A0000CE0101960E94BD2CBC01CE0107960E941A
:101A1000482DCE0101960E945D2DF401E10FF11DCC
:101A200000831F5F133008F08EC4BCCF0D3009F067
:101A30008AC4B4C41092FA0669EA79E07BC4C7018B
:101A40000E94852E8091CB0A833081F038F481305A
:101A500099F08230C9F46AEB77E013C0853079F0F1
:101A600040F0863089F460E977E00BC063EC77E002
:101A700008C066EB77E005C069EA77E002C06EE96E
:101A800077E0C7010E94E12EC7010E94852E61E820
:101A900077E0C7010E94E12E8091D30A882319F0D4
:101AA0006EE777E002C06CE777E0C7010E94E12EA5
:101AB00065E777E0C7010E94E12E8091D40A882370
:101AC00019F062E777E002C060E777E0C7010E94A3
:101AD000052F8091FA0681112FC06AE677E0C701D1
:101AE0000E94E12E6091DD0A7091DE0AC7010E941A
:101AF000D33567E577E0C7010E94E12E6091E70AE0
:101B00007091E80AC7010E94D33566E477E0C70107
:101B10000E94E12E6091E30A7091E40A8091DD0A4F
:101B20009091DE0A6817790718F46DE377E014C026
:101B3000C7010E94D33513C06AE177E0C7010E9454
:101B4000E12E40911C0250E060E070E02AE0C70105
:101B50000E943C2E61E177E0C7010E94052F66E0FC
:101B600077E0C7010E94E12E8091CC0A813031F0EC
:101B700040F0823059F463EF76E005C063E077E02F
:101B800002C06FEF76E0C7010E94E12E61ED75E0C3
:101B9000C7010E94F7154091DF0A5091E00A60E00A
:101BA00070E02AE0C7010E943C2E6DEA74E0C70194
:101BB0000E94F715C7010E94852E66EE76E0C701E8
:101BC0000E94E12E6091E10A7091E20A80E090E0CB
:101BD0000E94C56120E030E048EC52E40E94B2630C
:101BE000AB01BC01C7010E94E7356AED76E0C70191
:101BF0000E94E12E6091D20AC7010E94BE356AECB4
:101C000076E0C7010E94E12E6091100270911102EE
:101C1000C7010E94D33566EB76E0C7010E94E12E32
:101C20000E94B342482F50E060E070E02AE0C70114
:101C30000E943C2E63EB76E0C7010E94E12E80916A
:101C4000CD0A813029F06EEA76E0C7010E94E12ECC
:101C50006BE976E0C7010E94E12E4091F20650E068
:101C600060E070E02AE0C7010E943C2E6FEC75E056
:101C7000C701BDD74091F50650E060E070E02AE072
:101C8000C7010E943C2E66E976E0C7010E94052F3D
:101C90006AE876E0C7010E94E12E8091CF0A88238E
:101CA00019F068E876E002C065E876E0C7010E94B6
:101CB000052F69E776E0C7010E94E12E6091CE0A08
:101CC000C7010E94BE3564E776E0C7010E94E12E9D
:101CD0006091D10AC7010E94BE356BE576E0C7016D
:101CE0000E94E12E6091D80A662321F0C7010E946C
:101CF000BE3505C067E576E0C7010E94052F6AE49E
:101D000076E0C7010E94E12E8091DB0A811103C0B9
:101D100067E476E002C065E476E0C7010E94052F23
:101D20006FE176E0C7010E94E12E8091DC0A8823F2
:101D300019F06DE176E002C06AE176E0C7010E9429
:101D4000052F6CE076E0C7010E94E12E80E00E9442
:101D5000742F892B19F46AE076E002C067E076E020
:101D6000C7010E94052F6BEF75E0C7010E94E12EAD
:101D700080E00E94742F892B19F469EF75E002C08E
:101D800066EF75E0C7010E94052F0EE610E0A12C5A
:101D9000B12C38019CE4690E711C69EB75E0C70138
:101DA00026D7AFEFAA1ABA0AB501C7010E948B3530
:101DB0006DED75E0C7011BD7C8010E94851F8F3FDD
:101DC00041F561EB74E0C70112D733C0C8010E942E
:101DD000851F8F3F61F1E0E8E80FEA30F0F4F0E0B2
:101DE000EE0FFF1FE45DFD4F0190F081E02DF093B9
:101DF0001902E09318026081C7010E94892EE091C8
:101E00001802F09119026181C7010E94892E0F5FAB
:101E10001F4F06151705D4F20CC0D701ED91FC91A8
:101E20000190F081E02D682FC7011995F0CF830153
:101E3000EECFC7010E94852E8301BCE0AB16B10432
:101E400009F0A7CF64EF75E075C200E010E09701DC
:101E500048EE53E063E670E084E00E942C3F9C0172
:101E6000245631092438334010F08CE291E09093ED
:101E7000E20A8093E10A69EB74E0C701B8D6609189
:101E8000E10A7091E20A80E090E00E94C56120E0E2
:101E900030E048EC52E40E94B263AB01BC01C701E0
:101EA0000E94E7353DC200E010E097014BE550E0AD
:101EB00069E070E082E00E942C3F8C011816190640
:101EC00014F002E310E00093D20A64ED74E07FC1E5
:101ED00001E010E0970148EE53E06FEF7FEF83E001
:101EE0000E942C3F8C01181619060CF026C2909304
:101EF000E40A8093E30A6CEE74E00DC16EE979E0C8
:101F0000C7010E94E12E8091CA0A811105C0D092BA
:101F1000CA0A65E979E001C21092CA0A6EE879E05E
:101F2000FCC162E879E0C7010E94E12E8091CC0AF1
:101F3000823039F41092CC0A0E940D236EE779E0CA
:101F4000ECC1813079F45092CC0A0E941D2368ECD8
:101F500070E080E090E00E94ED300E941D2362E777
:101F600079E0DBC1D092CC0A0E941D236FE679E0B4
:101F7000D4C1C092210264E670E080E090E00E944B
:101F8000ED30D701ED91FC910084F185E02DC70182
:101F90001995181619064CF4D701ED91FC9102849D
:101FA000F385E02DC7011995ECCF5092C90A81E065
:101FB00090E00E94B8246CEC77E0C7010E94052FE6
:101FC000D701ED91FC910084F185E02DC7011995B1
:101FD000892B21F40E943535882391F3D701ED91A7
:101FE000FC910084F185E02DC7011995181619069A
:101FF0004CF4D701ED91FC910284F385E02DC701EB
:102000001995ECCF80E090E00E94B82496C167E675
:1020100079E0C7010E94E12E80910007882339F002
:102020001092C80A0E94994064E679E083C1D09278
:10203000C80A0E94134162E679E07CC161E579E05B
:10204000C7010E94E12E81E09091CD0A911180E0BC
:102050008093CD0A882319F06FE479E002C06BE425
:1020600079E0C7010E94E12E62E479E056C101E007
:1020700010E0970140E157E264EF71E084E00E94D4
:102080002C3F9C0164E670E00E94BE645B013A9CB8
:10209000B0013B9C700D1124C9010E94BE648C01EB
:1020A000A816B90614F5B5E0AB16B104F4F0CD9757
:1020B000E4F46FEF77E0C7010E94E12EB501C7019C
:1020C0000E948B356BEF77E0C7010E94E12EB801CB
:1020D000C7010E948B3566EF77E0C7010E94052F8C
:1020E000A092F2060093F50628C16FEE77E022C1B8
:1020F00001E010E0970148EE53E060E070E083E01B
:102100000E942C3F8C01181619060CF016C10E9473
:102110001B2468E075E0C7016AD5B801C7010E94B9
:10212000B745FEC001E010E0970147E050E060E0F5
:1021300070E081E00E942C3F181619060CF0FDC0DB
:102140008330910531F18CF481309105C1F0029713
:1021500009F0F3C082E00E9464236BE278E0C701DB
:102160000E94E12E69E278E0E5C085309105B9F082
:102170009CF0069709F0E1C061E278E0DBC00E94C4
:10218000781F61E478E0C7010E94E12E6FE378E0F8
:10219000D1C067E278E0CEC065E278E0CBC063E210
:1021A00078E0C8C001E010E0970144E650E060E04C
:1021B00070E082E00E942C3F8C01181619060CF08A
:1021C000BCC0D09201078093CE0A6AE175E0C701D6
:1021D0000ED5B801C7010E94B745AFC064E379E0EE
:1021E000C7010E94E12E8091CF0A882339F0109216
:1021F000CF0AD092010761E379E09CC0D092CF0A68
:10220000D09201076FE279E095C01092B80BD0929E
:10221000B90BC092210291C080916E07882329F0EA
:1022200010926E0769E179E085C0D0926E0760E098
:1022300079E080C061EF78E0C7010E94E12E8091D3
:10224000D30A882329F01092D30A6FEE78E065C094
:10225000D092D30A6CEE78E060C06DED78E0C701F3
:102260000E94E12E8091D40A882329F01092D40A8A
:102270006BED78E052C0D092D40A68ED78E04DC0A2
:102280008091C70A882319F01092C70A56C0D092CD
:10229000C70A53C041E061E070E003C041E060E084
:1022A00070E080E008C041E060E070E003C041E021
:1022B00061E070E081E00E9409373FC001E010E07A
:1022C000970145E150E06FEF7FEF82E00E942C3FE5
:1022D0008531910528F58093D80A62EB78E01DC01E
:1022E0008091DB0A882339F08330D0F41092DB0A26
:1022F00063E978E012C05092DB0A63EA78E00DC02F
:102300006CE678E0C7010E94E12E8091DC0A882308
:1023100051F01092DC0A69E678E0C7010E94052FAF
:10232000D09201070AC0D092DC0A67E678E0F5CFC8
:1023300065E578E0C7010E94052F10927007C7017C
:102340000E94852E95C96BEE75E08091C40A90912C
:10235000C50A0E94052F8091C40A9091C50ADC012C
:10236000ED91FC910084F185E02D19951816190660
:1023700084F48091C40A9091C50ADC01ED91FC912E
:102380000284F385E02D1995E6CF40931C02D0928C
:10239000FA06CE0107960E945D2DCFCF62EC75E064
:1023A0008091C40A9091C50A0E94E12EBE01695F26
:1023B0007F4F8091C40A9091C50A0E94D32E69EB89
:1023C00075E08091C40A9091C50A0E94052FF4011E
:1023D000E10FF11D40E050E021E030E0E815F905A3
:1023E000A1F2829190E0C097829FB001839F700D0F
:1023F000929F700D1124460F571FC901489E9001EE
:10240000499E300D1124EACF60960FB6F894DEBFD6
:102410000FBECDBFDF91CF911F910F91FF90EF9035
:10242000DF90CF90BF90AF909F908F907F906F90F4
:102430005F904F903F9008958FE19AE00E94321E86
:102440000E94C8311092B70A0895CF93DF93D82F16
:102450008091B70A833039F083E08093B70A8FE127
:102460009AE00E94321ED03221F481E08093BA07B4
:1024700069C08091BA07882399F18091B9078031AA
:10248000D8F0C091B80781E08C0F8093B807109204
:10249000B907823088F06EE37AE088E39AE00E9420
:1024A000482D6BE574E08EE39AE00E94332DC093D3
:1024B000B80781E08093B707C091B907CC2371F0CA
:1024C0002091B80736E0239FC001112460E2885CA8
:1024D000954F0E942B2CCF5FC093B9071092BA077B
:1024E0008091B9078031D8F0C091B80781E08C0F96
:1024F0008093B8071092B907823088F06EE37AE0D3
:1025000088E39AE00E94482D6BE574E08EE39AE040
:102510000E94332DC093B80781E08093B7072091C4
:10252000B80736E0239FC00111246D2F885C954FBA
:102530000E942B2C8091B9078F5F8093B90781E0AF
:102540008093B607DF91CF9108950F931F938091E9
:10255000B70A813039F58091BF078093B70A882385
:10256000F1F0833009F059C08FE19AE00E94321EE9
:1025700060E080E00E94D13168E37AE08FE19AE088
:102580000E94D32E61E080E00E94D1316EE37AE0B8
:102590008FE19AE00E94D32E1092B7073CC01F91A2
:1025A0000F914ACF823019F0833099F036C00E94E3
:1025B00025310091BB071091BC072091BD073091D8
:1025C000BE07061717072807390718F481E080931C
:1025D000B70A8091B607882301F18091B707882355
:1025E00031F08FE19AE00E94321E1092B70760E04E
:1025F00080E00E94D13168E37AE08FE19AE00E94A6
:10260000D32E61E080E00E94D1316EE37AE08FE169
:102610009AE00E94D32E1092B6071F910F91089551
:102620004F925F926F927F928F929F92AF92BF92E2
:10263000CF92DF92EF92FF920F931F93CF93DF938E
:1026400084E30E94742F2091B507892B91F4211106
:102650001BC082E08093C90A81E090E00E94B82408
:1026600081E08093B5071092B80B8FEF8093210221
:102670000BC0222349F082E08093C90A80E090E0F9
:102680000E94B8241092B5078091AD07811113C044
:102690006091DD0A7091DE0A80E090E00E94C561E1
:1026A0006093A9077093AA078093AB079093AC0738
:1026B00081E08093AD07C090A507D090A607E09079
:1026C000A707F090A807C091B507C114D104E10491
:1026D000F10409F04EC0C13069F40E9425316093C5
:1026E000A5077093A6078093A7079093A807C093A8
:1026F000A40711C1C090A007D090A107E090A20745
:10270000F090A307C114D104E104F10409F403C15A
:1027100080919F078111FFC00E9425316C197D09AE
:102720008E099F090E94C5616B017C012091A90758
:102730003091AA074091AB075091AC0760E070E080
:1027400086E994E40E94B26320E030E040E950E47E
:102750000E9426629B01AC01C701B6010E944B6436
:1027600018160CF0D8C080E270DE81E080939F07DD
:10277000D2C08091A407C81709F4A5C00E942531D2
:10278000CB018C199D09853191050CF4C4C0F090E2
:102790009E074C01092E000CAA08BB08EF2DF0E0A3
:1027A000EE0FFF1FE258F84FC13009F041C091957C
:1027B000819591099183808380917C0790917D0719
:1027C000019690937D0780937C0740907807509006
:1027D000790760907A0770907B0720E030E0A901CC
:1027E000C301B2010E94C161811105C0C501B401DC
:1027F0000E94C7610EC0C501B4010E94C761A30158
:1028000092010E944E6320E030E040E05FE30E94CE
:102810002662609378077093790780937A07909384
:102820007B07F394F0929E0781E08093A4073CC05D
:10283000918380838091760790917707019690939A
:1028400077078093760740907207509073076090E7
:1028500074077090750720E030E0A901C301B20150
:102860000E94C161811105C0C501B4010E94C76108
:102870000EC0C501B4010E94C761A30192010E946C
:102880004E6320E030E040E05FE30E942662609308
:102890007207709373078093740790937507109273
:1028A000A407F394F0929E070E9425316093A50738
:1028B0007093A6078093A7079093A80780919E071F
:1028C000803149F52DC00E942531C11124C06C19F9
:1028D0007D09072E000C880B990B0E94C7616B01C4
:1028E0007C012091A9073091AA074091AB07509134
:1028F000AC0760E070E086E994E40E94B2639B015B
:10290000AC010E944E639B01AC01C701B6010E945D
:102910004B6418162CF000E010E0D0E0C0E04CC191
:1029200080917C0790917D07181619060CF0AFC0B6
:10293000809176079091770702970CF4A8C0C09019
:102940007807D0907907E0907A07F0907B0720E035
:1029500030E0A901C701B6010E944B6418160CF0C3
:1029600096C0A701960160E070E086E994E40E94B9
:10297000B2632B013C01C090A907D090AA07E09058
:10298000AB07F090AC07A70196010E944D634B0185
:102990005C0120E030E0A9010E944B6418165CF451
:1029A00020E030E040EA50E4C501B4010E94C1617A
:1029B00087FD0BC020C020E030E040EA50ECC501AC
:1029C000B4010E944B6418165CF4A3019201C70184
:1029D000B6010E944E6320E030E040E05FE34DC06E
:1029E00020E030E040E251ECC501B4010E944B64AC
:1029F00018165CF01BC020E030E040E251E4C50155
:102A0000B4010E94C16187FF1CC0A7019601C701E4
:102A1000B6010E944E63A30192010E944E6320E022
:102A200030E040E450E40E94B26329C020E030E08E
:102A300040EA51ECC501B4010E944B6418165CF0E9
:102A400026C020E030E040EA51E4C501B4010E9414
:102A5000C16187FF1CC0A7019601C701B6010E9492
:102A60004E63A70196010E944E63A30192010E944A
:102A70004E6320E030E040E85EE30E94266260930F
:102A8000A9077093AA078093AB079093AC07D091E6
:102A90009E078090A9079090AA07A090AB07B090DE
:102AA000AC070EE717E0C0E0C12CD12C7601CD17A2
:102AB000F1F1F801619171918F0116161706ACF5CD
:102AC000072E000C880B990B0E94C7612B013C015B
:102AD000A501940160E070E086E994E40E94B2638D
:102AE0009B01AC01C301B2010E94B26326E636E647
:102AF00046E050E40E94C161AAE0B0E0A70196015F
:102B000087FF0AC00E940C636B017C01FFEFCF1AA4
:102B1000DF0AEF0AFF0A09C00E940C636B017C0107
:102B200022E0C20ED11CE11CF11CCF5FC0CF860198
:102B3000DE2DCF2DB6018E2D9F2D0E94043D805895
:102B40008A3060F4E82FF0E0EE0FFF1FE45DFD4FE8
:102B50008081918190931B0280931A021092A507A5
:102B60001092A6071092A7071092A8070E9425317D
:102B70006093A0077093A1078093A2079093A30787
:102B800010929E07109272071092730710927407AA
:102B900010927507109278071092790710927A07B1
:102BA00010927B0710929F0710927D0710927C076E
:102BB0001092770710927607B8018D2F9C2FDF9126
:102BC000CF911F910F91FF90EF90DF90CF90BF902A
:102BD000AF909F908F907F906F905F904F900895EF
:102BE000DC01ED91FC910190F081E02D19946115CB
:102BF000710579F0FB0101900020E9F73197AF01F1
:102C0000461B570BDC01ED91FC910280F381E02D16
:102C1000199480E090E00895EF92FF920F931F9334
:102C2000CF93DF937C01D62F8A010E94C831809117
:102C3000B70A823051F08093BF0782E08093B70AD1
:102C40008FE19AE00E94321E0FC00E94C831C0E09E
:102C50006D2F8C2F0E94D13161ED75E08FE19AE0EC
:102C6000C6DFCF5FC031A1F7F7018481958120E1F4
:102C700030E0281B390BC901969587956D2F0E946E
:102C8000D131B7018FE19AE00E94D32E0E94253105
:102C9000DC01CB01800F911FA11DB11D8093BB07EB
:102CA0009093BC07A093BD07B093BE07DF91CF916F
:102CB0001F910F91FF90EF900895CF93DF93CDB7C1
:102CC000DEB762970FB6F894DEBF0FBECDBF80931C
:102CD0002102682F70E06F5F7F4F4AE0CE010796B8
:102CE0000E948D2D6EE275E0CE0101960E94C02DEE
:102CF000BE01695F7F4FCE0101960E94032DBC018A
:102D0000CE010D960E94B82D48EE53E060E0CE0152
:102D10000D9682DFCE010D960E945D2DCE010196AB
:102D20000E945D2DCE0107960E945D2D0EDC6296FD
:102D30000FB6F894DEBF0FBECDBFDF91CF910895DF
:102D40006F927F929F92AF92BF92CF92DF92EF925B
:102D5000FF920F931F93CF93DF93CDB7DEB76297A8
:102D60000FB6F894DEBF0FBECDBF11E00FEF84E0C9
:102D7000B82E95E0A92E26E0922E3CE2C32EDD244B
:102D8000D3944AE0E42EF12C85D7882309F4A5C218
:102D90008091B90B8111A1C26CD79C013C017724B1
:102DA000F3013897EC3CF105A0F020522F3D60F77D
:102DB0008091C107882329F084E10E947B22109230
:102DC000C107C3010E94A9220E947B220093210215
:102DD000DBCF8827E053FF4F8F4F0C94D16484E101
:102DE00090E002C08CEE9FEF0E947523CDCF8091C2
:102DF000E10A9091E20AB7010E94AA64CB010BC0DC
:102E00008091E10A9091E20AB7010E94AA648827A2
:102E10009927861B970B0E94C923B6CF8091DD0AA4
:102E20009091DE0A019605C08091DD0A9091DE0A3C
:102E300001970E941B24A8CFD092E20AC092E10A17
:102E40001093FF06109301076DE375E0CE01019624
:102E50000E94C02D48EE53E060E0CE010196DCDE1A
:102E6000CE0101960E945D2D70DB8ECF8091B70B55
:102E7000882329F01092B70B6BE475E01FC2109302
:102E8000B70B62E575E01AC21093C10768E575E0FB
:102E900015C280E001C081E00E946D1F75CF82E005
:102EA000FBCF83E0F9CF84E0F7CF85E0F5CF86E074
:102EB000F3CF87E0F1CF88E0EFCF89E0EDCF8AE074
:102EC000EBCF8BE0E9CF80E015C081E013C082E05A
:102ED00011C083E00FC084E00DC085E00BC086E028
:102EE00009C087E007C088E005C089E003C08AE028
:102EF00001C08BE0E2DE48CF8091B80B882309F453
:102F000043CF81508093B80B3FCF8091C80A88236C
:102F100021F01092C80A0E9499408091C00788232E
:102F200049F082E08093C90A80E090E00E94B824D2
:102F30001092C0078091B70B81111092B70B1092BD
:102F4000B80B1093B90B0093210260E675E0B6C18F
:102F500080E015C081E013C082E011C083E00FC0A3
:102F600084E00DC085E00BC086E009C087E007C0A3
:102F700088E005C089E003C08AE001C08BE00E94C0
:102F80006F4402CF0E94274380911002909111025A
:102F900001969093110280931002F6CE0E9427436F
:102FA000F3CE60911002709111026150710970931B
:102FB0001102609310024AE0CE0107960E94622D32
:102FC00066E675E0CE0101960E94C02DBE01695FE4
:102FD0007F4FCE0101960E94032DBC01CE010D96BC
:102FE0000E94B82D48EE53E060E0CE010D9614DE4D
:102FF000CE010D960E945D2DCE0101960E945D2DA1
:10300000CE01079667C183E08093CB0A6CED72E036
:1030100076C082E08093CB0A65EE72E070C0909239
:10302000CB0A6EEE72E06BC0A092CB0A6FEF72E03B
:1030300066C06FE675E0CE0101960E94C02D48EE95
:1030400053E060E0CE010196E7DDCE0101960E94DB
:103050005D2D40E157E260E070E084E00E948C4327
:10306000181619060CF090CE90931102809310025E
:10307000D0C0B092CB0A67E173E041C09091FF06E7
:1030800080910E07992341F0823009F47DCE109291
:10309000FF066EE775E012C1823009F475CE109319
:1030A000FF0665E875E00AC16BE875E0CE010196A0
:1030B0000E94C02D48EE53E060E0CE010196ACDDE9
:1030C000CE0101960E945D2D48EE53E06FEF7FEF39
:1030D00083E00E948C4397FD57CE9093E40A80933F
:1030E000E30ACCC08091CA0A811105C01093CA0AB4
:1030F00064E773E004C01092CA0A63E873E0CE018B
:1031000001960E94C02D48EE53E060E0CE0101968A
:1031100083DDCE0101960E945D2DB2C08091CC0A64
:10312000823039F41092CC0A0E940D2361E973E0D9
:10313000E6CF813039F582E08093CC0A0E941D23CE
:1031400068EC70E080E090E00E94ED300E941D236A
:103150006EE973E0CE0101960E94C02D48EE53E067
:1031600060E0CE01019658DDCE0101960E945D2DF2
:1031700067EA73E0CE0101960E94C02D48EE53E04D
:1031800061E0C4CF63EB73E0CE0101960E94C02DD5
:1031900048EE53E060E0CE0101963EDDCE0101969F
:1031A0000E945D2D1093CC0A0E941D2369C00093DC
:1031B00021028091C007882351F082E08093C90AE0
:1031C00080E090E00E94B8241092C00722C06AE913
:1031D00075E0CE0101960E94C02D48EE53E060E0FC
:1031E000CE01019619DDCE0101960E945D2D82E08F
:1031F0008093C90A81E090E00E94B8241093C00730
:10320000C3CD80910007882339F01092C80A0E942C
:1032100099401093B70AB8CD6FE975E0CE010196D9
:103220000E94C02D48EE53E060E0CE010196F4DC30
:10323000CE0101960E945D2D1093C80A0E94134191
:10324000A3CD6AEA75E0CE0101960E94C02D48EE3A
:1032500053E060E0CE010196DFDCCE0101960E94D2
:103260005D2D48EE53E060E070E083E00E948C4307
:10327000181619060CF088CD0E941B241093B70A6B
:103280001093010781CD34D660E574E017C082E069
:103290000E94642365E574E011C08091CF0A882301
:1032A00039F01092CF0A1093010767EE73E006C061
:1032B0001093CF0A1093010765EF73E0CE010196DA
:1032C0000E94C02D48EE53E060E0CE010196A4DCE0
:1032D000CE0101960E945D2D57CD62960FB6F894EF
:1032E000DEBF0FBECDBFDF91CF911F910F91FF9039
:1032F000EF90DF90CF90BF90AF909F907F906F90B6
:103300000895089585ED8093BC008091BC0084FDF4
:10331000FCCF10924608089540912008262F30E0F7
:10332000240F311D21323105DCF420914608243070
:10333000C9F4FC0180E090E0861758F43091200831
:103340002191DC01A250B84FA30FB11D2C9301961F
:10335000F3CF80912008680F6093200880E00895E3
:1033600081E0089582E0089508958FEF9FEF08951A
:103370008FEF9FEF08958091FD0790E091958195E3
:1033800091090895CF93DF931F921F92CDB7DEB7B7
:10339000CB01642F49835A83BFDF4981842F5A812F
:1033A000952F0F900F90DF91CF910895CF93DF93DA
:1033B0001F92CDB7DEB7698361E0CE010196ACDF25
:1033C00081E090E00F90DF91CF910895089580E023
:1033D00090E008958091FB079091F7062091F80600
:1033E000921304C08093FB0780E008959F5F9D3295
:1033F00008F090E0E92FF0E0E253F84FE08190937D
:10340000F706EE2379F3E03F11F48160E5CFE03E6B
:1034100011F48260E1CF80FF11C0E23111F48B7FA3
:103420000BC0E93511F4877F07C0E43111F48F7EBA
:1034300003C0E13109F48F7D8C7FCECFE23111F4EE
:103440008460CACFE93511F48860C6CFE43111F445
:103450008061C2CFE13111F48062BECF81FF08C02C
:10346000EA54E43328F5F0E0EF5BFD4FE08121C042
:10347000982F9C7031F0E438D8F4F0E0E655F44F22
:1034800015C084FF06C0E43898F4F0E0EA5DF44F1C
:103490000DC085FF06C0E43858F4F0E0EE55F54F56
:1034A00005C0E43828F4F0E0E25EF54FE49101C095
:1034B000E0E08C7FEE2309F48FCF8093FB078E2F03
:1034C0000895CF93DF93EC0160E08E810E949C2FE2
:1034D00061E08E810E949C2F60E08E810E949C2F73
:1034E0008BE891E00197F1F7DF91CF910895CF92AA
:1034F000DF92EF92FF920F931F93CF93DF93809110
:10350000F9060E94742FEC010E9425310091CA0730
:103510001091CB072091CC073091CD076B017C0136
:10352000C01AD10AE20AF30A970186010B3F11057E
:103530002105310520F01092C9071092C807609349
:10354000CA077093CB078093CC079093CD078091E7
:10355000C9079FEF980F983050F4DD2701C0CC0FBA
:103560009A95EAF79091C807C92BC093C8078F5F57
:103570008093C9078B30B9F48091F8068F5F8D3244
:1035800008F080E09091F706891749F0E82FF0E005
:103590009091C807E253F84F90838093F8061092F9
:1035A000C9071092C807DF91CF911F910F91FF902B
:1035B000EF90DF90CF9008951F920F920FB60F9269
:1035C00011242F933F938F939F93AF93BF93809139
:1035D000720890917308A0917408B09175083091A9
:1035E0006C0823E0230F2D3720F40196A11DB11D97
:1035F00005C026E8230F0296A11DB11D20936C087B
:103600008093720890937308A0937408B093750820
:103610008091760890917708A0917808B091790808
:103620000196A11DB11D8093760890937708A09311
:103630007808B0937908BF91AF919F918F913F9196
:103640002F910F900FBE0F901F9018951F920F9201
:103650000FB60F9211240BB60F922F933F934F93F7
:103660005F936F937F938F939F93AF93BF93EF93EA
:10367000FF93E0910E02F0910F021995FF91EF91E7
:10368000BF91AF919F918F917F916F915F914F917A
:103690003F912F910F900BBE0F900FBE0F901F9078
:1036A00018951F920F920FB60F9211240BB60F921E
:1036B0002F933F934F935F936F937F938F939F933A
:1036C000AF93BF93EF93FF93E0910C02F0910D0243
:1036D0001995FF91EF91BF91AF919F918F917F913C
:1036E0006F915F914F913F912F910F900BBE0F9073
:1036F0000FBE0F901F9018951F920F920FB60F924A
:1037000011240BB60F922F933F934F935F936F93B8
:103710007F938F939F93AF93BF93EF93FF93E0912A
:103720000202F09103021995FF91EF91BF91AF91C1
:103730009F918F917F916F915F914F913F912F91C9
:103740000F900BBE0F900FBE0F901F9018951F92F9
:103750000F920FB60F9211240BB60F922F933F9337
:103760004F935F936F937F938F939F93AF93BF9389
:10377000EF93FF93E0910002F09101021995FF9100
:10378000EF91BF91AF919F918F917F916F915F91D9
:103790004F913F912F910F900BBE0F900FBE0F9046
:1037A0001F9018951F920F920FB60F9211240BB60F
:1037B0000F922F933F934F935F936F937F938F93CA
:1037C0009F93AF93BF93EF93FF93E0910A02F09121
:1037D0000B021995FF91EF91BF91AF919F918F913E
:1037E0007F916F915F914F913F912F910F900BBE01
:1037F0000F900FBE0F901F9018951F920F920FB64B
:103800000F9211240BB60F922F933F934F935F9318
:103810006F937F938F939F93AF93BF93EF93FF9398
:10382000E0910802F09109021995FF91EF91BF9183
:10383000AF919F918F917F916F915F914F913F9148
:103840002F910F900BBE0F900FBE0F901F901895E9
:103850001F920F920FB60F9211240BB60F922F9357
:103860003F934F935F936F937F938F939F93AF9308
:10387000BF93EF93FF93E0910602F0910702199531
:10388000FF91EF91BF91AF919F918F917F916F9138
:103890005F914F913F912F910F900BBE0F900FBEF4
:1038A0000F901F9018951F920F920FB60F92112430
:1038B0000BB60F922F933F934F935F936F937F932A
:1038C0008F939F93AF93BF93EF93FF93E091040285
:1038D000F09105021995FF91EF91BF91AF919F91E2
:1038E0008F917F916F915F914F913F912F910F90A9
:1038F0000BBE0F900FBE0F901F9018951F920F9246
:103900000FB60F9211240BB60F922F933F934F9344
:103910005F936F937F938F939F93AF93BF93EF9337
:10392000FF938091B900887F803609F49CC068F5C8
:10393000883209F45BC090F4803109F454C038F443
:10394000882309F4F6C0883009F44DC0F5C08831E9
:1039500009F44CC0803209F45DC0EEC0803409F433
:1039600068C048F4803309F455C0883309F0E4C0D6
:1039700080934508D8C0803509F44FC0883509F4D4
:103980005DC0883409F0D8C0D6C0883909F4C7C0F2
:10399000A8F4883709F467C038F4883609F463C09E
:1039A000803709F460C0C8C0883809F4B8C08039CD
:1039B00009F45FC0803809F0BFC05BC0803B09F4E8
:1039C00086C038F4803A09F466C0883A09F47FC0AA
:1039D000B3C0803C09F4A7C0883C09F4A4C0883B6C
:1039E00009F48AC0A9C080916B0810C090916A0840
:1039F00080916908981770F5E0916A0881E08E0F50
:103A000080936A08F0E0E75BF74F80818093BB000A
:103A100085EC86C0809345088EC0E0916A0881E0FD
:103A20008E0F80936A088091BB00F0E0E75BF74F50
:103A3000808390916A08809169086EC0E0916A085D
:103A400081E08E0F80936A088091BB00F0E0E75B15
:103A5000F74F80838091480881116DC081E0809389
:103A6000470884EA61C083E08093460810924408C6
:103A7000CFCF80914408803208F051C0E0914408D3
:103A800081E08E0F809344088091BB00F0E0EC5DF4
:103A9000F74F8083BDCF85EC8093BC001092460821
:103AA00080914408803230F4E0914408F0E0EC5D0D
:103AB000F74F10826091440870E0E0912208F09185
:103AC000230884E298E019951092440835C084E0F8
:103AD000809346081092210810922008E0911E0859
:103AE000F0911F08199580912008811105C081E08F
:103AF000809320081092FE07E091210881E08E0F4C
:103B000080932108F0E0E250F84F80818093BB0061
:103B10009091210880912008981708F479CF85E8C2
:103B20008093BC0009C085EC8093BC0010924608CD
:103B300003C010924508E6DBFF91EF91BF91AF9172
:103B40009F918F917F916F915F914F913F912F91B5
:103B50000F900BBE0F900FBE0F901F901895CF9235
:103B6000DF92EF92FF920F931F93CF93DF937C012D
:103B70006C0187E0C80ED11CC0E0D0E0062F10E039
:103B8000B8010C2E02C0759567950A94E2F7617032
:103B9000F60181916F010E949C2F2196C430D105BE
:103BA00079F7C701DF91CF911F910F91FF90EF90AF
:103BB000DF90CF9086CCCF92DF92EF92FF920F935F
:103BC0001F93CF93DF93EC01F62E642F8C810E941C
:103BD0009C2F8D818F3F19F060E00E949C2F8F8574
:103BE0000F2D10E084FF24C06E0187E0C80ED11CA9
:103BF000E12CF12CB8010E2C02C0759567950A9442
:103C0000E2F76170F60181916F010E949C2FFFEF36
:103C1000EF1AFF0A88E0E816F10461F7CE01DF91A0
:103C2000CF911F910F91FF90EF90DF90CF9049CCF3
:103C3000B80184E0759567958A95E1F7CE018FDF2D
:103C40006F2DCE01DF91CF911F910F91FF90EF90DB
:103C5000DF90CF9084CF41E0AEDF81E090E0089527
:103C600040E0A9CF61E0FCDF8BE39FE10197F1F732
:103C700008958091FC07882319F01092FC0703C077
:103C8000A9DB882321F0082E000C990B08958FEFF3
:103C90009FEF08958091FC07811109C09BDB982F4D
:103CA0008093FC0781E0911103C080E0089581E0DA
:103CB00008958F929F92AF92BF92CF92DF92EF9230
:103CC000FF920F931F93CF93DF936B017C01490108
:103CD0005A01B8018091FA06811109C080EB94E085
:103CE0000E94BE64072E000C880B990B0DC04091FA
:103CF0001C0228EE33E0429FC001439F900D112427
:103D0000BC01990F880B990B0E94C761A70196010E
:103D10000E94266220E030E04AE754E40E942662D6
:103D20000E941A646B017C0120E030E04AE754E411
:103D3000C501B4010E9426620E941A64C60ED71EF5
:103D4000E81EF91E0E94C8304B015C010E94C83079
:103D5000C1E00E94C830DC01CB0188199909AA0989
:103D6000BB098C159D05AE05BF0530F18091CB0ACE
:103D7000833079F48091C707882359F082E00E944C
:103D8000742F019731F485E00E94742F019709F494
:103D900090C08091C6078150823008F091C0809118
:103DA000D30A81111092C30A8091D40A882309F49E
:103DB00087C01092C20A84C00E94A7408091CB0A9B
:103DC0009BEF980F923068F0833059F482E00E94A4
:103DD000742F892B31F485E00E94742F892B09F40C
:103DE00044C08091C607813019F40E94114006C07A
:103DF000823011F00E9411400E94254026D4DFEF4E
:103E0000D80FDC30A8F40E9425310091FB061091F8
:103E1000FC062091FD063091FE06DC01CB01801BE3
:103E2000910BA20BB30B81399140A105B10500F5AF
:103E30008091C90A8130B1F482E00E94742F892BED
:103E400031F185E00E94742F892B09F10E943535EC
:103E500081111DC08091C30A811119C08091C20ACD
:103E6000811115C00E94101374CFC093C707B9CF3A
:103E700087E141D38D2F3FD30E9425316093FB060C
:103E80007093FC068093FD069093FE06D1CF80913F
:103E90000E078111E7CF83E08093C90A0E94253184
:103EA0006093C2077093C3078093C4079093C507BC
:103EB00007C01092C7071092C30A1092C20A69CFB6
:103EC000DF91CF911F910F91FF90EF90DF90CF90F6
:103ED000BF90AF909F908F900895CF93C82F87E1A8
:103EE0000AD38C2F08D38FEF80932102CF910895AE
:103EF000EAECFAE016828BE08093120281E087837D
:103F00008093010708950C94E2620C94DA622F9278
:103F10003F924F925F926F927F928F929F92AF9259
:103F2000BF92CF92DF92EF92FF920F931F93CF93A6
:103F3000DF93CDB7DEB76D970FB6F894DEBF0FBE37
:103F4000CDBF9F878E870C9714F067D3A3C16BE515
:103F500074E0CE0101960E94C02D4BE050E065EB6D
:103F600075E0CE0101960E94CF2B6E857F856F5F35
:103F70007F4FCE0101960E94FC2BBE016F5F7F4FE9
:103F8000CE0107960E94B82D48EE53E060E0CE01C6
:103F900007960E940C16CE0107960E945D2D4DD308
:103FA0001092C30A1092C20A82E00E94742F0197F5
:103FB00071F485E00E94742F019749F40E94353511
:103FC000811105C084E30E94742F019769F33E8537
:103FD0002CE4329FC00111249C0122593F4F398BA0
:103FE000288B255B3F4F3C8F2B8F00E01D86212CBB
:103FF000312C812C912C5401C12CD12C760191E0D3
:104000009A8F10E00E944E418091C30A8823C9F024
:1040100022E02093C90A0E94D8411092C30AAAE064
:10402000B0E0A70196010E940C636B017C013FEF99
:10403000C31AD30AE30AF30A0E9425314B015C013B
:1040400011E08091C20A8823C1F082E08093C90AFE
:10405000E1D41092C20AAAE0B0E0A70196010E9442
:104060000C636B017C0122E0C20ED11CE11CF11C2F
:104070000E9425314B015C0111E00E9410132B01BD
:104080003C01611571058105910521F4112309F4A5
:104090003FC002C06B017C010E9425310E94C561B6
:1040A0006A8B7B8B8C8B9D8BC501B4010E94C56193
:1040B0006E8B7F8B888F998F6091DD0A7091DE0AFD
:1040C00088E592E00E94AA6480E090E00E94C561C9
:1040D00020E030E040E450E40E9426629B01AC0105
:1040E0006E897F89888D998D0E944E639B01AC01FA
:1040F0006A897B898C899D890E944B6418160CF40F
:10410000C6C091E045284628472809F4C1C0BFC071
:10411000011148C00E9425310E94C5616A8B7B8BCA
:104120008C8B9D8BC501B4010E94C5616E8B7F8B0A
:10413000888F998F6091DD0A7091DE0A80EB94E0A0
:104140000E94AA6480E090E00E94C5612B013C01BE
:104150006091CE0A70E080E090E00E94C7619B0110
:10416000AC01C301B2010E9426629B01AC016E89C1
:104170007F89888D998D0E944E639B01AC016A896D
:104180007B898C899D890E944B6418165CF43D855F
:10419000311108C081E08D8789E0C82ED12CE12C37
:1041A000F12C08C091E09D8F0E9435359D8D8823AC
:1041B00019F01A8E90E0F7CF911124CF29E0C216A2
:1041C000D104E104F10431F01D861C141D041E0409
:1041D0001F04F4F4C701B6010E94043D7C01682F5E
:1041E00088899989820D931D8EDE3FEF231A330A49
:1041F000011107C001E08CE5E816F10449F000E088
:1042000007C09BE2E916F10411F0015001C002E081
:1042100088899989820D931D2B8D3C8D8217930778
:1042200029F4C9016FEF6FDE81010FC03A8D3111A2
:10423000E3CEF8CFE888F988E00EF11EC70165DE0D
:10424000803249F46FEFC7015EDE0150110910168C
:10425000110684F303C000E010E0F7CF61EC75E0D5
:10426000CE0107960E94C02D48EE53E060E0CE01DB
:1042700007960E940C16CE0107960E945D2D8E8532
:104280000E94F737CE0101960E945D2D03C090E099
:1042900011E089CF6D960FB6F894DEBF0FBECDBF8B
:1042A000DF91CF911F910F91FF90EF90DF90CF9012
:1042B000BF90AF909F908F907F906F905F904F9046
:1042C0003F902F900895CF93DF93CDB7DEB76297DD
:1042D0000FB6F894DEBF0FBECDBF2091E70A309134
:1042E000E80A820F931F9C012650310926333105BD
:1042F00038F49093E80A8093E70A81E080930107FD
:104300006091E70A7091E80A4AE0CE0101960E94A6
:10431000622DBE016F5F7F4FCE0107960E94B82DC0
:1043200066EC75E0CE0107960E94EC2CBC01CE0134
:104330000D960E94B82D48EE53E060E0CE010D9638
:104340000E940C16CE010D960E945D2DCE0107969F
:104350000E945D2DCE0101960E945D2D62960FB6E2
:10436000F894DEBF0FBECDBFDF91CF910895EF92DD
:10437000FF920F931F93CF93DF93CDB7DEB7A09734
:104380000FB6F894DEBF0FBECDBF0091DD0A1091CD
:10439000DE0A4AE0B801CE0101960E94622DBE01FC
:1043A0006F5F7F4FCE0145960E94B82D6BEC75E094
:1043B000CE0145960E94EC2C25E0209FB001219F64
:1043C000700D11240E94892C63ED75E00E94EC2C85
:1043D000BC01CE014B960E94B82D48EE53E060E040
:1043E000CE014B960E940C16CE014B960E945D2D7D
:1043F000CE0145960E945D2DCE0101960E945D2D55
:104400000091E10A1091E20A6091DD0A7091DE0AE2
:1044100080EB94E00E94AA647B014AE0CE014596BD
:104420000E94622DBE016B5E7F4FCE014B960E94B3
:10443000B82D6DED75E0CE014B960E94EC2C9C01E1
:10444000E09EC001E19E900DF09E900D112464E667
:1044500070E00E94AA64C9010E94892C69ED75E090
:104460000E94EC2C7C01B80180E090E00E94C561C4
:1044700020E030E048EC52E40E94B2638E010F5F0E
:104480001F4F22E044E00E94A15EFC010190002049
:10449000E9F73197AF01481B590BBC01C7010E94D6
:1044A000CF2B811103C0C7010E94772CB701CE0129
:1044B00001960E94B82D48EE53E061E0CE010196CE
:1044C0000E940C16CE0101960E945D2DCE014B96E6
:1044D0000E945D2DCE0145960E945D2DA0960FB6DF
:1044E000F894DEBF0FBECDBFDF91CF911F910F912A
:1044F000FF90EF900895E091B80BE63978F48F378C
:1045000041F0EF5FE093B80BF0E0E05EF44F8083A2
:104510000895EE2319F0E150E093B80B08958091CF
:10452000B80B882319F081508093B80B8091B80B99
:10453000882371F0A2E2BBE0E1E2FBE090E09F01A2
:1045400021523B40281739071CF42D912193F7CFB6
:1045500008959C01215631092A31310528F02F5741
:1045600031092F31310508F480978E39910521F0FA
:104570008A39910521F008958EE890E008958AE83F
:1045800090E008958F929F92AF92BF92CF92DF9268
:10459000EF92FF920F931F936B017C0149015A0127
:1045A00020E030E0A9010E94C161882371F020E081
:1045B00030E0A901C701B6010E94C16187FD05C0B5
:1045C000A5019401C701B60174DB1F910F91FF9003
:1045D000EF90DF90CF90BF90AF909F908F90089515
:1045E00040E050E0BA018CED95E00E94E63164E6CF
:1045F00070E080E090E00E94ED3040E050E0BA01D1
:1046000080E991E00E94E63164E670E080E090E0AD
:104610000E94ED3084E00C94CB2F40E050E0BA01D2
:1046200080E991E00E94E63164E670E080E090E08D
:104630000E94ED3084E00C94CB2F48EC50E060E019
:1046400070E08CED95E00C94E6311F93CF93DF93EF
:1046500087E30E94A93020918508309186082817A9
:10466000390714F48FEF2CC013E1C0E0D0E087E3EA
:104670000E94A930209185083091860828173907B3
:104680003CF08C0F9D1F97FD0196EC01D595C795C9
:10469000115069F7A7E8B8E0EBE7F8E080E090E0B8
:1046A0002D913D912C173D072CF4208131812C1741
:1046B0003D0734F4019632968630910589F7D2CFC2
:1046C000DF91CF911F910895813019F0823011F060
:1046D00008950ECC1092D00A9CE090931202809321
:1046E000D10A81E0809301070895CF93DF93CDB77E
:1046F000DEB762970FB6F894DEBF0FBECDBF6091F4
:10470000DF0A7091E00A680F791FCB018C5291404B
:10471000853A9640A8F57093E00A6093DF0A81E03D
:10472000809301074AE0CE0107960E94622D69E05E
:1047300073E0CE0101960E94C02DBE01695F7F4FDC
:10474000CE0101960E94032D63E173E00E94EC2CE0
:10475000BC01CE010D960E94B82D48EE53E060E0FA
:10476000CE010D960E940C16CE010D960E945D2D75
:10477000CE0101960E945D2DCE0107960E945D2D0F
:1047800062960FB6F894DEBF0FBECDBFDF91CF911A
:104790000895CF93DF93CDB7DEB762970FB6F89445
:1047A000DEBF0FBECDBF6091E10A7091E20A680FD3
:1047B000791FCB01875991098339924080F5709315
:1047C000E20A6093E10A4AE0CE0107960E94622D58
:1047D0006FED75E0CE0101960E94C02DBE01695FAC
:1047E0007F4FCE0101960E94032DBC01CE010D9694
:1047F0000E94B82D48EE53E060E0CE010D960E9475
:104800000C16CE010D960E945D2DCE0101960E94E0
:104810005D2DCE0107960E945D2D0E94A51281E0BC
:104820008093010762960FB6F894DEBF0FBECDBF2E
:10483000DF91CF9108959C0121503109273E3340EB
:1048400040F49093DE0A8093DD0A81E080930107B3
:104850008ECD08952091DD0A3091DE0A820F931FDC
:104860009C01265031092633310508F4E4DF7FCD61
:104870000F931F93CF93DF9300D000D0CDB7DEB757
:10488000182F811115C069EE75E0CE0101960E94C6
:10489000C02D48EE53E060E0CE0101960E940C1658
:1048A000CE0101960E945D2D83E080930E0711C01A
:1048B00066EF75E0CE0101960E94C02D48EE53E0F0
:1048C00060E0CE0101960E940C16CE0101960E9476
:1048D0005D2D0E94D84182E00E94742F892B39F40B
:1048E00081E090E0111102C0B5DF01C0ECDC85E091
:1048F0000E94742F892B39F48FEF9FEF111102C0A2
:10490000A9DF01C0E0DC01E082E00E94742F892B66
:1049100029F00E943535811129C006C085E00E942A
:10492000742F892B19F1F5CF0111D3CF82E0809339
:104930000E071092C30A1092C20A82E00E94742FDE
:10494000892BD9F385E00E94742F892BB1F30E9443
:1049500035358111F2CF26960FB6F894DEBF0FBE23
:10496000CDBFDF91CF911F910F91089500E0CCCF83
:104970002091F306892B51F121114AC08091FF0645
:10498000882349F00E94134180911202882319F074
:1049900061E00E949C2F8091CC0A813051F090916F
:1049A0000E07923031F0823069F48091C90A82306A
:1049B00049F440E050E0BA018091DF0A9091E00AAA
:1049C0000E94E63181E08093F30622C0222301F1A8
:1049D0008091FF06882349F080911202882319F004
:1049E00060E00E949C2F0E9413418091CC0A81308C
:1049F00051F090910E07923031F0823039F480916D
:104A0000C90A823019F484E00E94CB2F1092F30679
:104A10000C94A740CF92DF92EF92FF920F931F93D7
:104A2000CF93DF9380910E07823029F4C091E70A7B
:104A3000D091E80A04C0C091DD0AD091DE0A82E07C
:104A40008093C60781E090E093DF6091E10A709166
:104A5000E20A80E090E00E94C56120E030E048EC8E
:104A600052E40E94B2636B017C018091D20A682FEC
:104A700070E080E090E00E94C56120E030E048E412
:104A800052E40E94B2639B01AC01C701B6010E94CF
:104A900026628E0120E030E0A90174DD80E090E024
:104AA00067DF6091D20A70E080E090E00E94C5610B
:104AB00020E030E048E452E40E94B26320E030E0BD
:104AC00040E450E40E9426629B01AC0160E070E08B
:104AD00080E890E40E944D6320E030E040E050E840
:104AE00051DD8091C90A823029F48091CF0A811169
:104AF0000E944E418091C90A8230D1F48091CF0A40
:104B00008823B1F08091C30A811112C08091C20A3A
:104B100081110EC00091DD0A1091DE0A20E030E024
:104B2000A90160E070E080E090E4C3D8C1E001C07A
:104B3000C0E08091C90A823009F051C020910A0773
:104B400030910B0740910C0750910D07AAE0B0E09F
:104B50000E940C63DC01CB010296A11DB11D809364
:104B60000A0790930B07A0930C07B0930D070E94C0
:104B700025310091DD0A1091DE0AC11128C00E9482
:104B8000C5616B017C01B80180E090E00E94C561C5
:104B90009B01AC0160E070E086E993E40E94B2639F
:104BA00020E030E040E450E40E9426629B01AC012A
:104BB000C701B6010E944E630E941F6460930607FE
:104BC00070930707809308079093090708C0109215
:104BD00006071092070710920807109209070E9413
:104BE0004E411092C6078091C90A80931D02DF9141
:104BF000CF911F910F91FF90EF90DF90CF9008958C
:104C00000F931F93CF93DF9321E02093C90AEC0108
:104C10008C01045F1F4F89918D3229F08E32D1F4BF
:104C20000E94D84101C0F6DE8091C30A811108C0FC
:104C30008091C20A811104C08091C90A833029F48D
:104C40001092C30A1092C20A05C00E94110BC0172D
:104C5000D10709F7DF91CF911F910F9108950F931D
:104C60001F93CF938A3009F4FFC08D3009F4FCC044
:104C700091E09093C90A9091F6069111F5C0C62F64
:104C800090E0FC01B097EA36F10508F0DFC0882714
:104C9000E456FE4F8F4F0C94D16485E596E0D5C065
:104CA00080E696E0D2C08BE896E0CFC084E296E042
:104CB000CCC089E496E0C9C08CE796E0C6C087E422
:104CC00096E0C3C08DE196E0C0C085E296E0BDC02D
:104CD0008BE996E0BAC084E596E0B7C084E996E037
:104CE000B4C08DE096E0B1C088E496E0AEC08CE040
:104CF00096E0ABC08CE496E0A8C083E596E0A5C042
:104D00008CE896E0A2C081E696E09FC08EE096E037
:104D10009CC085E896E099C089E296E096C086E05E
:104D200096E093C084E896E090C085E096E08DC060
:104D300083E296E08AC08AE096E087C080E196E050
:104D400084C08AE996E081C086E196E07EC08DE667
:104D500096E07BC089EA96E078C08CE196E075C069
:104D60008FE596E072C082E296E06FC085E496E03F
:104D70006CC088E296E069C08BE796E066C000915F
:104D8000DD0A1091DE0A6091CE0A70E0655071096B
:104D9000072E000C880B990B0E94C76120E030E0C1
:104DA000A901F0DB53C086E396E04FC08DE396E0A7
:104DB0004CC084E496E049C081E596E046C08EE5AB
:104DC00096E043C085E696E040C08CE696E03DC0A4
:104DD00083E796E03AC08AE796E037C081E896E03C
:104DE00034C089E896E031C086E696E02EC088E3BC
:104DF00096E02BC088E596E028C08EE296E025C0BC
:104E000080E996E022C087E396E01FC08BE496E03D
:104E10001CC089E996E019C08FE296E016C080EACE
:104E200096E013C086EA96E010C00091DD0A10916A
:104E3000DE0A20E030E0A90160E070E080E09FE35E
:104E40000E94591E11C08FEA96E0DADEC13061F08F
:104E50000091DD0A1091DE0A20E030E0A90160E057
:104E600070E080E090E48EDBCF911F910F91089568
:104E70008F929F92AF92BF92CF92DF92EF92FF926A
:104E80008091C2079091C307A091C407B091C50754
:104E9000892B8A2B8B2B99F10E942531C090C20758
:104EA000D090C307E090C407F090C5079B01AC0108
:104EB0002C193D094E095F0969017A016091DD0AEB
:104EC0007091DE0A80EB94E00E94AA642091D80AD7
:104ED000269FC001279F900D1124A0E0B0E08C1503
:104EE0009D05AE05BF0530F51092C2071092C307AD
:104EF0001092C4071092C50782E08093C90A80917E
:104F0000CB0A9EEF980F923028F09BEF980F9230CB
:104F1000A0F515C0833099F48091C707882379F0F4
:104F200082E0E2D7892B59F085E0DED7892B39F072
:104F30001092C7071092C30A1092C20A47C180910B
:104F4000C30A882339F01092C30A82E08093C90A09
:104F50000E94D8418091C20A882309F437C1109277
:104F6000C20A82E08093C90AFF90EF90DF90CF9051
:104F7000BF90AF909F908F904DCD843009F00AC1C3
:104F80008091C30A882339F01092C30A82E080938B
:104F9000C90A0E94D8419091C20A80917108992350
:104FA00009F445C01092C20A811113C082E08093B7
:104FB000C90A81E090E0DCDC81E0809371080E9406
:104FC000253160936D0870936E0880936F089093FD
:104FD00070080E9425310E94C5616B017C0180919F
:104FE000DD0A9091DE0ABC0180E090E00E94C5617C
:104FF0009B01AC0160E070E88BE394E40E94B26333
:1050000020E030E040E450E40E9426629B01AC01C5
:10501000C701B6010E944E630E941F646093060799
:10502000709307078093080790930907CFC08823E0
:1050300009F4CCC082E08093C90A80E090E098DC5B
:105040000E942531C0906D08D0906E08E0906F08E6
:10505000F09070086C197D098E099F090E94C56146
:105060004B015C018091DD0A9091DE0ABC0180E079
:1050700090E00E94C5619B01AC0160E070E086E9B0
:1050800094E40E94B26320E030E040E05FE30E94DD
:1050900026629B01AC01C501B4010E944B64181645
:1050A0000CF075C00E9425316C197D098E099F098D
:1050B0000E94C5616B017C018091DD0A9091DE0A3E
:1050C000BC0180E090E00E94C5619B01AC0160E002
:1050D00070E086E994E40E94B2639B01AC010E94F7
:1050E0004E639B01AC01C701B6010E944B64209145
:1050F0000A0730910B0740910C0750910D07AAE069
:10510000B0E0181644F40E940C63DC01CB01029657
:10511000A11DB11D07C00E940C63DC01CB010196EB
:10512000A11DB11D80930A0790930B07A0930C0754
:10513000B0930D070E9425310E94C5616B017C016F
:105140008091DD0A9091DE0ABC0180E090E00E942F
:10515000C5619B01AC0160E070E88BE394E40E94C0
:10516000B26320E030E040E450E40E9426629B01FC
:10517000AC01C701B6010E944E630E941F64609398
:10518000060770930707809308079093090710920A
:1051900071081CC08130D1F48091C30A882341F08A
:1051A0001092C30A82E08093C90A81E090E005C0B2
:1051B00082E08093C90A80E090E0FF90EF90DF905A
:1051C000CF90BF90AF909F908F90D2CBFF90EF90F9
:1051D000DF90CF90BF90AF909F908F9008952F92C7
:1051E0003F924F925F926F927F928F929F92AF9277
:1051F000BF92CF92DF92EF92FF920F931F93CF93C4
:10520000DF93CDB7DEB72D970FB6F894DEBF0FBE94
:10521000CDBF1C010E94253169837A838B839C83D7
:105220001D86812C912C5401C12CD12C7601712C1E
:1052300012E0910140E050E029873A874B875C8774
:105240008091CD0A81110E94DB420E944E418091E3
:10525000C30A8823C1F01093C90A0E94D841109252
:10526000C30AAAE0B0E0A70196010E940C636B019B
:105270007C013FEFC31AD30AE30AF30AE6D74B01D6
:105280005C01772473948091C20A8823B1F0109353
:10529000C90AC0DB1092C20AAAE0B0E0A7019601D9
:1052A0000E940C636B017C0142E0C40ED11CE11C26
:1052B000F11CCBD74B015C0102C0772091F1C5D71F
:1052C0000E94C5616D837E838F839887C501B40179
:1052D0000E94C5612B013C016091DD0A7091DE0ADC
:1052E00088E592E00E94AA6480E090E00E94C56197
:1052F00020E030E040E450E40E9426629B01AC01D3
:10530000C301B2010E944E639B01AC016D817E819D
:105310008F8198850E944B647724739418160CF142
:1053200019C021143104B1F090D7DC01CB012981DF
:105330003A814B815C81821B930BA40BB50B2985B1
:105340003A854B855C85281739074A075B0710F4B7
:1053500060E014C001E00E943535882321F031E07F
:105360003D8700E0F8CF0E94110B011169CF4D85F8
:10537000411103C0B601C70104C069E070E080E0DC
:1053800090E02D960FB6F894DEBF0FBECDBFDF9133
:10539000CF911F910F91FF90EF90DF90CF90BF9032
:1053A000AF909F908F907F906F905F904F903F90C5
:1053B0002F9008950895CF92DF92EF92FF920F936E
:1053C0001F93CF93DF936C017A018B01C0E0D0E093
:1053D000CE15DF0589F0D8016D918D01D601ED91D3
:1053E000FC910190F081E02DC6011995892B11F4F3
:1053F0007E0102C02196ECCFC701DF91CF911F91B2
:105400000F91FF90EF90DF90CF900895FC01538DA6
:10541000448D252F30E0842F90E0821B930B54178E
:1054200010F0CF96089501970895FC01918D828D1B
:10543000981761F0828DDF01A80FB11D5D968C91E8
:10544000928D9F5F9F73928F90E008958FEF9FEFF3
:105450000895FC01918D828D981731F0828DE80FAF
:10546000F11D858D90E008958FEF9FEF0895FC0169
:10547000918D228D892F90E0805C9F4F821B910936
:105480008F73992708958AE998E0F1DF21E0892B4D
:1054900009F420E0822F0895FC01848DDF01A80F1C
:1054A000B11DA35ABF4F2C91848D90E001968F734C
:1054B0009927848FA689B7892C93A089B1898C916B
:1054C00080648C93938D848D981306C00288F38931
:1054D000E02D80818F7D80830895EF92FF920F935E
:1054E0001F93CF93DF93EC0181E0888F9B8D8C8D90
:1054F000981305C0E889F989808185FD23C0F62EBF
:105500000B8D10E00F5F1F4F0F731127E02E8C8D56
:10551000E8120BC00FB607FCFACFE889F989808141
:1055200085FFF5CFCE01B8DFF2CF8B8DFE01E80FFE
:10553000F11DE35AFF4FF0820B8FEA89FB898081CE
:10554000806207C0EE89FF896083E889F9898081DC
:105550008064808381E090E0DF91CF911F910F9173
:10556000FF90EF900895CF93DF93EC01888D88230F
:10557000C1F0EA89FB89808185FD05C0A889B989C8
:105580008C9186FD0EC00FB607FCF5CF808185FF9C
:10559000F2CFA889B9898C9185FFEDCFCE017CDF50
:1055A000E8CFDF91CF91089580E090E0892B19F04A
:1055B0006ADF811125C080E090E0892B41F080E016
:1055C00090E0892B21F00E94000081111CC080E036
:1055D00090E0892B41F080E090E0892B21F00E943F
:1055E0000000811113C080E090E0892BA1F080E0E1
:1055F00090E0892B81F00E94000081110AC008957B
:105600000E940000D8CF0E940000E1CF0E9400005D
:10561000EACF0C940000089590E0FC013197E2314C
:10562000F10508F04EC08827EA5FFD4F8F4F0C94BC
:10563000D164809180008F7703C0809180008F7D3E
:1056400080938000089580918000877FF9CF84B592
:105650008F7702C084B58F7D84BD08958091B0009E
:105660008F7703C08091B0008F7D8093B000089544
:10567000809190008F7707C0809190008F7D03C04C
:1056800080919000877F8093900008958091A00082
:105690008F7707C08091A0008F7D03C08091A0000C
:1056A000877F8093A0000895809120018F7707C0A5
:1056B000809120018F7D03C080912001877F80939E
:1056C000200108950E94EA660F931F93CF93DF9302
:1056D000EC0188819981009729F02A813B81261766
:1056E000370788F48B016F5F7F4F0E940666009733
:1056F00061F0998388831B830A832C813D81232B4E
:1057000011F4FC01108281E001C080E0DF91CF91B3
:105710001F910F910895FC01248135816217730751
:1057200020F480819181009729F410927A088AE709
:1057300098E00895860F971F0895FC012481358114
:10574000FB01448155812417350721F5FC01808137
:105750009181FB0160817181009719F061157105DC
:10576000A1F46115710549F0232BB1F0FB01808193
:1057700090E09195819591090AC0009769F0232BDB
:1057800059F0FC01808190E002C00E94F76621E0A0
:10579000892B19F020E001C021E0822F0895EF92BB
:1057A000FF920F931F93CF93DF93FC0124813581E8
:1057B0006115710511F480E018C041155105A1F083
:1057C0007B01EC018A01020F131FB8017DDF8823E2
:1057D00091F3288139818C819D81B701820F931FBC
:1057E0000E9400671D830C8381E0DF91CF911F91A0
:1057F0000F91FF90EF900895EF92FF920F931F93F8
:10580000CF93DF93CDB7DEB728970FB6F894DEBFFE
:105810000FBECDBF7C01CB014AE08E010F5F1F4F51
:10582000B8010E941F5FF80101900020E9F731974D
:10583000AF01401B510BB801C701B1DF28960FB66D
:10584000F894DEBF0FBECDBFDF91CF911F910F91B6
:10585000FF90EF900895CF93DF931F921F92CDB7E3
:10586000DEB769831A8241E050E0BE016F5F7F4F6F
:1058700096DF0F900F90DF91CF9108950F931F93B4
:10588000CF93DF938C01EB01FC0180819181009724
:10589000B1F0688179816115710579F04281538198
:1058A0002C813D814217530740F00E9400678C8194
:1058B0009D81F8019583848313C00E946E65888161
:1058C0009981F801918380838A819B81938382836C
:1058D0008C819D8195838483198218821B821A8210
:1058E0001D821C82DF91CF911F910F910895CF935C
:1058F000DF93EC0188819981009711F00E946E6519
:10590000198218821D821C821B821A82DF91CF911C
:105910000895EF92FF920F931F93CF93DF93CDB72C
:10592000DEB727970FB6F894DEBF0FBECDBF7C0160
:10593000CB014AE08E010F5F1F4FB8010E94335F19
:10594000F80101900020E9F73197AF01401B510B9E
:10595000B801C70124DF811102C0C701C8DFC70138
:1059600027960FB6F894DEBF0FBECDBFDF91CF9163
:105970001F910F91FF90EF900895EF92FF920F9378
:105980001F93CF93DF9300D01F92CDB7DEB77C017A
:10599000862F4AE08E010F5F1F4FB80190E00E94F2
:1059A0001F5FF80101900020E9F73197AF01401B1C
:1059B000510BB801C701F3DE811102C0C70197DFA7
:1059C000C7010F900F900F900F90DF91CF911F9113
:1059D0000F91FF90EF900895CF93DF93EC01611545
:1059E000710559F0FB0101900020E9F73197AF01F3
:1059F000461B570BD4DE811102C0CE0178DFCE01E9
:105A0000DF91CF910895CF93DF93EC01FB014481A7
:105A1000558160817181C3DE811102C0CE0167DFD3
:105A2000CE01DF91CF910895EF92FF920F931F93D4
:105A3000CF93DF93EC017B018A01BA0145DE81112E
:105A400003C0CE0154DF07C01D830C83B7018881DA
:105A500099810E940067CE01DF91CF911F910F9134
:105A6000FF90EF900895CF93DF93EC0161157105DE
:105A700051F0FB0101900020E9F73197AF01461B7F
:105A8000570BD2DF01C033DFCE01DF91CF910895F4
:105A9000CF93DF93EC01FB018617970751F06081EC
:105AA00071816115710521F044815581BDDF01C00F
:105AB0001EDFCE01DF91CF910895FC01808191819D
:105AC0000C946E650F931F93CF93DF93CDB7DEB722
:105AD00061970FB6F894DEBF0FBECDBF8C01CB012E
